:020000040800F2
:10000000F00A0020A5020008DB2F0008CF2400081A
:10001000D92F0008E5040008DB34000800000000C8
:100020000000000000000000000000008B3000080D
:100030005B0500080000000089300008D53000088A
:10004000BF020008BF020008BF020008BF0200088C
:10005000BF020008BF020008BF020008BF0200087C
:10006000BF020008BF020008BF020008BF0200086C
:10007000BF020008BF020008BF020008BF0200085C
:10008000BF020008BF020008BF020008BF0200084C
:10009000E9040008F5040008BF020008BF020008D8
:1000A000BF020008BF020008BF020008BF0200082C
:1000B000BF020008BF020008BF020008DD240008DC
:1000C000D1240008BF020008BF020008BF020008D8
:1000D000BF020008BF020008BF020008BF020008FC
:1000E000BF020008BF020008BF020008BF020008EC
:1000F000BF02000889310008BF020008BF020008E3
:10010000BF020008BF020008BF020008BF020008CB
:100110005D32000869320008BF020008BF02000813
:10012000BF020008BF020008BF020008BF020008AB
:10013000BF0200080000000000000000BF0200082D
:10014000010500080D050008BF020008BF020008F5
:10015000BF020008BF020008BF020008BF0200087B
:10016000BF020008BF020008BF020008BF0200086B
:10017000BF020008BF020008BF0200080000000024
:1001800000000000BF0200080000000000000000A6
:10019000BF0200080000000000000000BF020008CD
:1001A000000000000000000000000000BF02000886
:1001B000BF020008BF020008BF020008BF0200081B
:1001C000BF02000800F002F800F05CF80AA090E816
:1001D000000C82448344AAF10107DA4501D100F002
:1001E00051F8AFF2090EBAE80F0013F0010F18BF73
:1001F000FB1A43F001031847083C0000283C0000AC
:100200000A444FF0000C10F8013B13F0070408BF3C
:1002100010F8014B1D1108BF10F8015B641E05D0DA
:1002200010F8016B641E01F8016BF9D113F0080F8F
:100230001EBF10F8014BAD1C0C1B09D16D1E58BF21
:1002400001F801CBFAD505E014F8016B01F8016B58
:100250006D1EF9D59142D6D37047000000230024CB
:1002600000250026103A28BF78C1FBD8520728BFC6
:1002700030C148BF0B6070471FB503F0AAFD1FBD1A
:1002800010B510BD00F0D4F81146FFF7F5FF03F0EC
:1002900035F900F0F2F803B4FFF7F2FF03BC00F009
:1002A000F5F800000948804709480047FEE7FEE7E7
:1002B000FEE7FEE7FEE7FEE7FEE7FEE7FEE7FEE716
:1002C00004480549054A064B70470000793100088B
:1002D000C5010008F0040020F00A0020F00600200C
:1002E000F006002053EA020C00F069802DE9F04B83
:1002F0004FF00006002B1FBFB3FA83F503FA05F495
:1003000024FA05F65E4012BF1643B2FA82F502FAED
:1003100005F4C5F120051EBF22FA05FC44EA0C04D1
:10032000203556EA044C4FEA144418BF641C4FF0C1
:1003300000084FF00009904271EB030C39D30029FB
:1003400019BFB1FA81F701FA07F6B0FA80F700FA9F
:1003500007F6C7F120071EBF20FA07FC46EA0C0685
:100360002037B6FBF4FCA7EB0507103F07F01F0B87
:10037000CBF120060CFA0BFB2CFA06F644BFB34671
:100380000026202FA4BF5E464FF0000B5BEA060C50
:1003900008BF4FF0010B19EB0B09ABFB027C48EBDC
:1003A0000608C01B06FB02CC0BFB03CC71EB0C0157
:1003B000C1E70B46024641464846BDE8F08B13B5FF
:1003C0004FF000004FF00001AFF30080BDE81C408B
:1003D00070474FF0000200B5134694469646203908
:1003E00022BFA0E80C50A0E80C50B1F12001BFF4EE
:1003F000F7AF090728BFA0E80C5048BF0CC05DF854
:1004000004EB890028BF40F8042B08BF704748BFA1
:1004100020F8022B11F0804F18BF00F8012B704715
:1004200070477047704700000048704790040020F4
:100430007546FFF7F9FFAE4605006946534620F0C2
:100440000700854618B020B5FFF73AFFBDE8204009
:100450004FF000064FF000074FF000084FF0000B80
:1004600021F00701AC46ACE8C009ACE8C009ACE833
:10047000C009ACE8C0098D46704710B50446AFF31B
:1004800000802046BDE81040FFF705BF0149182055
:10049000ABBEFEE726000200704700000F4A0E497F
:1004A000126E41F8202091ED050A0D48BDEEC00AFC
:1004B00010EE102A20F8402F91ED060ABDEEC00A7A
:1004C00010EE102A428091ED070ABDEEC00A10EE30
:1004D000101A8180704700000804002000010020ED
:1004E00000000020FEE70000014800F0C6B900004F
:1004F00094010020014800F0C0B9000094010020E0
:10050000014800F0BAB90000BC010020014800F029
:10051000B4B90000BC0100200C4B10B503F160021F
:1005200002F1080148B101280ED1002014182479E5
:100530000C54401C0328F9DD04E0145C0C54401CEE
:100540000328FADD93ED1A0A10BD00000001002017
:100550000178407840EA012070477047074A10B59B
:10056000917D074B01201C5C082C00D00021401C11
:10057000C0B20528F7D3917510BD0000000000201F
:10058000F403002090F82020012A07D0022A05D089
:10059000416A41F48021416201207047006842694C
:1005A0000A43426100207047F0B590F8205004687B
:1005B000A468012D05D0022D03D0416A41F48021A9
:1005C0005DE014F0406F01D1E50055D5C4F301643E
:1005D000022C03D9416A41F4000150E00125A540F5
:1005E0001D608D684FF4C0739DB1CE6835434E6871
:1005F00045EAC605066803EB0417F5514FF4C275CA
:10060000076805EB04150E697E51097D012905D0A7
:1006100009E00E88CD6845EA4655EBE701684E597A
:1006200046F480764E511179D579567941EA0561C3
:1006300095792D0445EA062529434FF4C6760568C9
:1006400006EB0416A9511178D57841EA0561957831
:1006500052782D0445EA022211434FF4C475026812
:1006600005EB04155151006803EB0411425842F0A8
:10067000010242500020F0BD416A41F40011416284
:100680000120F0BD10B590F82020012A07D0022AE1
:1006900005D0416A41F480214162012010BD3B48F0
:1006A000D0F8002242F00102C0F80022D0F8002267
:1006B00022F47C52C0F80022D0F800224B6A42EAB1
:1006C0000322C0F800220A7D02F01F0301229A4093
:1006D000D0F81C329343C0F81C32CB69B3B9D0F8C0
:1006E0000C329343C0F80C328C894B6864F31F437F
:1006F0004C6900EBC404C4F840320C890B6864F305
:100700001F434C6900EBC404C4F84432CB69012B8D
:1007100016D1D0F80C321343C0F80C320C884B6859
:1007200064F31F434C6900EBC404C4F840320C89E5
:10073000CB6864F31F434C6900EBC404C4F8443233
:100740008B69002BD0F804320ED01343C0F804326A
:100750000B69002BD0F8143208D01343C0F81432C0
:10076000096A012904D008E09343EFE79343F5E7D2
:10077000D0F81C121143C0F81C12D0F8001221F05E
:100780000101C0F80012002010BD0000006400400C
:10079000704730B590F82040012C05D0022C03D0D2
:1007A000416A41F480215DE00468002955D0246944
:1007B000A40754D04FF4D874056804EB01142D59E4
:1007C00015F00405956005682D594ED0ED0855606B
:1007D00005682C5904F00204D4604FF4DA740568FB
:1007E00004EB01142D5905F00F05156105682D590D
:1007F000C5F30725956105682C59240C54614FF405
:10080000DC72046802EB0112A4581C700468A4583E
:10081000240A5C700468A458240C9C700468A258D4
:10082000120EDA704FF4DE72046802EB0112A45863
:100830001C710468A458240A5C710468A458240C30
:100840009C710468A258120EDA71006881B10169C6
:1008500041F020010161002030BDE468A8E7416A51
:1008600041F400114162012030BD6D0D1560AFE70C
:10087000C16841F02001C160EDE72DE9F05F054658
:10088000006800244669D0F804908768D0F80CB05E
:10089000D0F810A0D0F81880F10748D0F90714D08C
:1008A00001218160B80703D5284600F03AFB0CE02F
:1008B000780702D54FF4006407E0380702D54FF4FB
:1008C000805402E0284600F02BFBF80516D5296875
:1008D0004FF480708860B80503D5284600F023FBEC
:1008E0000CE0780502D544F4005407E0380502D541
:1008F00044F4804402E0284600F014FBF80316D5C7
:1009000029684FF480308860B80303D5284600F08A
:100910000CFB0CE0780302D544F4004407E03803F4
:1009200002D544F4803402E0284600F0FDFA300796
:1009300007D55FEACB6004D52968102044F4007421
:10094000C86070074FF0080707D55FEA0B7004D541
:100950002868C760284600F0ADF9B00706D52868BA
:10096000C068800702D0284600F0A6F9700607D5B7
:100970005FEACA6004D52968102044F480640861E5
:10098000B00607D55FEA0A7004D5286807612846D3
:1009900000F096FAF00606D528680069800702D0B4
:1009A000284600F08EFAB00308D55FEAC96005D585
:1009B000296810204860284600F084FAF00307D523
:1009C0005FEA097004D528684760284600F0AEFA4F
:1009D000300446D55FEA497040D5F00504D55FEA9A
:1009E000C87001D044F00104B00504D55FEA8870F6
:1009F00001D544F00204700504D55FEA487001D5C2
:100A000044F00404300529D518F0700F26D008F002
:100A10007000402815D006DC102809D020280AD004
:100A2000302816D10AE050280ED0602811D10EE0EF
:100A300044F008040DE044F010040AE044F02004FF
:100A400007E044F0400404E044F0800401E044F492
:100A500080742868816921F070018161296804200F
:100A60004860002C05D0686A204368622846FFF77A
:100A70008FFEBDE8F09F70B5040003D094F820000D
:100A800010B104E0012070BD204600F081F820681C
:100A9000016841F00101016000F0B2FB0546052646
:100AA00004E000F0ADFB401B0A2811D82068406824
:100AB000C007F6D02068016821F00201016000F053
:100AC0009FFB05460BE000F09BFB401B0A2806D964
:100AD000606A40F40030606284F82060D2E72068E9
:100AE00040688007EFD4207E0128206801683DD04F
:100AF00021F080010160607E01282068016838D003
:100B000021F040010160A07E01282068016833D0F7
:100B100021F020010160E07E0128206801682ED0CC
:100B200041F010010160207F01282068016829D070
:100B300021F008010160607F01282068016824D04D
:100B400021F004010160D4E902010843D4E9041250
:100B5000114308436168491E08432168C8610020A9
:100B60006062012084F82000002070BD41F0800107
:100B7000C0E741F04001C5E741F02001CAE721F09C
:100B80001001CFE741F00801D4E741F00401D9E7B3
:100B90002DE9F04387B0044614216846FFF719FC9D
:100BA000404B4148DFF8F8801968D4F800C03E4A4D
:100BB000022503260927DFF8F49010300024491C91
:100BC000C4452CD11960012907D1016841F0007199
:100BD0000160006800F000700590106840F00200AD
:100BE0001060106802AB00F0020005904FF44070F6
:100BF000CDE9000583E8D0006946484600F008FAD0
:100C000000221146142000F0F1FD142000F0E0FD58
:100C100000221146152000F0E9FD15203BE0DFF829
:100C20009080C44539D1D0F800C04CF0806CC0F839
:100C300000C0D0F800C001290CF0806CCDF814C0C1
:100C4000196007D1016841F000710160006800F08F
:100C500000700590106840F002001060106802AB50
:100C600000F0020005904FF44050CDE9000583E804
:100C7000D0006946484600F0CBF9002211464020DA
:100C800000F0B4FD402000F0A3FD002211464120F9
:100C900000F0ACFD412000F09BFD07B0BDE8F08303
:100CA000006400408001002030380240000402400F
:100CB00000680040704700002DE9F0417E4A7D4BFE
:100CC00000212DED048BA2F5B270FFF762FD7B4C85
:100CD000DFF8E48104F18006607A08F11C05401C0D
:100CE0006072D8F800004109E18300F01F012184FF
:100CF000052819D1288B401C28836E48FFF728FC53
:100D000060840746208D02F085FD41EC180B3846C3
:100D100002F080FD41EC100BB0EE481AF0EE681ABC
:100D200002F05CF986ED0F0AD8F80000062819D108
:100D3000688B401C68835F48FFF70AFCA084074665
:100D4000608D02F067FD41EC180B384602F062FD41
:100D500041EC100BB0EE481AF0EE681A02F03EF9C2
:100D600086ED100AD8F80000072819D1A88B401C7E
:100D7000A8835048FFF7ECFBE0840746A08D02F003
:100D800049FD41EC180B384602F044FD41EC100BD4
:100D9000B0EE481AF0EE681A02F020F986ED110A5A
:100DA000444AD8F80000603A17281DD0424F208CE2
:100DB000483709284DD037DC01283ED0032860D0C1
:100DC0003D4DAC35042866D0052809D15FF0000000
:100DD000FFF7A2FBBCEEC00AE18B10EE100A6854CC
:100DE000BDEC048BBDE8F081E88B401CE883314802
:100DF000FFF7AEFB00EE100AB8EE408A82ED028AE1
:100E0000E08E02F007FD41EC190B18EE100A02F01B
:100E10006FFF41EC100BB0EE491AF0EE691A02F0C8
:100E2000DDF886ED1A0ADBE7142836D015281FD026
:100E30001728D5D1106EB064D2E7E18B1E4A35F881
:100E40001100401C25F811001A48D4320079505482
:100E5000C6E70120FFF760FBE08B07EB8001C0B223
:100E600081ED000ABDEC048BBDE8F041FFF716BB35
:100E70000120FFF751FBE08B07EB800080ED000ABB
:100E8000AEE70120FFF748FBBCEEC00A0A4910EEAE
:100E9000100A98310AE001209AE70120FFF73CFB95
:100EA000BCEEC00A044910EE100AC031E28B88542F
:100EB00096E70000600100202003002000000020D1
:100EC000704770477047000070B5044690F82000E6
:100ED000012804D0606A40F40020606218E002201B
:100EE00084F820002068016821F00101016000F011
:100EF00087F905460EE000BF00F082F9401B0A2882
:100F000008D9606A40F400306062052084F820004F
:100F1000012070BD20684068C007EDD1606270BDDF
:100F200070477047704770477047704770472DE9AA
:100F3000F0410446876D00F063F9064694F83500E9
:100F40000025022806D08020606584F834500120F6
:100F5000BDE8F0812068016821F016010160206879
:100F6000416921F080014161206C08B9A06C20B179
:100F70002068016821F0080101602068016821F003
:100F8000010101600CE000F03BF9801B052807D946
:100F900020206065032084F8350084F83450D7E7BA
:100FA00020680068C007EED194F85C103F208840AC
:100FB000B860012084F8350084F834500020C7E779
:100FC00090F83510022903D0802141650120704737
:100FD000052180F835100068016821F001010160E9
:100FE0000020704790F835007047000070B5044647
:100FF00000F006F90546601C02D00448007804445D
:1010000000F0FEF8401BA042FAD370BD840100201E
:101010002DE9F84FDFF8ACA10022012403254FF0A1
:101020000F090AF1040BAAF1040E00BF0B6804FAC1
:1010300002F63340B3426ED10F7907F00307012F58
:1010400001D0022F16D187684FEA420805FA08FC42
:1010500027EA0C07D1F80CC00CFA08FC4CEA070C84
:10106000C0F808C04768B7430E79C6F3001696402B
:101070003E4346600E79F643B6070AD0C6684FEA8B
:10108000420C05FA0CF7BE438F6807FA0CF737439A
:10109000C7600E7906F00306022E10D1D60800EBC9
:1010A0008608D8F8206057074FEAD76C09FA0CF782
:1010B000BE430F6907FA0CF73743C8F8207006687B
:1010C0004FEA420C05FA0CF7BE430F7907F003070D
:1010D00007FA0CF7374307604E6816F4403F6BD0B1
:1010E000394E376847F480473760366822F0030787
:1010F00006F480460096354E07EB060CDCF80868CF
:1011000097074FEA177809FA08F7BE43304FB842FD
:1011100002D100271FE04FE02E4FB84201D1012736
:1011200019E02D4FB84201D1022714E02B4FB842ED
:1011300001D103270FE02A4FB84201D104270AE06A
:10114000284FB84201D1052705E0274FB84201D109
:10115000062700E0072707FA08F73743CCF8087896
:10116000DAF800605746D1F804C09E435FEACC2C01
:1011700000D51E433E60DBF800605F46D1F804C036
:101180009E435FEA8C2C00D51E433E60DEF8006073
:101190007746D1F804C09E435FEA8C3C00D51E43DD
:1011A0003E60084F083F3E68D1F804C09E435FEAA6
:1011B000CC3C00D51E433E60521C102AFFF436AFD3
:1011C000BDE8F88F083C014044380240003001403F
:1011D000000002400004024000080240000C0240EF
:1011E000001002400014024000180240006908404C
:1011F00000D0012070470AB1816170470904FBE704
:1012000001488068704700008401002070477047E3
:101210002DE9F041016804464A694E6890F83E00A5
:101220000025D743FA0506D4F243D20503D46FF460
:10123000807201254A61B90508D4F143C90505D476
:1012400022686FF4007145F002055161790525D4DB
:10125000F143C90522D4638D94F83D10226B2028F8
:1012600008D13BB9212910D029290ED0282901D134
:10127000212A0AD022686FF48061516145F004058B
:10128000102806D0402804D008E0204601F0F8FCE1
:1012900004E02068016841F400710160380508D459
:1012A000F043C00505D421686FF4006045F00805DF
:1012B0004861002D07D0206C284320642046BDE8FB
:1012C000F04101F06FB9BDE8F0812DE9F047026807
:1012D00000215368C66A90F83E4090F83D50102CAB
:1012E00012D0402C10D0046C002C7DD05469E44303
:1012F000A6077AD4DE43B60577D4036C03B19169AF
:10130000BDE8F04701F098BC976951694FF42A0C89
:10131000C9435FEAC1784FF02A4904D066452AD014
:101320004E4528D010E0DE43B6050DD4C16A6145B4
:1013300001D1012103E0C16A494501D10821C162FF
:10134000BDE8F04701F0E2BB0E0716D4DE43B60558
:1013500013D4416CC9B21161416B09B1C96B29B990
:10136000816B002907D0C96B002904D0006841684F
:1013700041F400614160BDE8F0878E0706D4DE438A
:10138000B60503D4BDE8F04701F034BBFE43526814
:1013900076074FEA02521DD4002AECDB0A0608D475
:1013A000DA43520505D4490705D5BDE8F04701F0F9
:1013B000C5BA4907DFD4D9438905DCD4212D05D02E
:1013C000402CD8D1BDE8F04701F0E6BBBDE8F047BE
:1013D00001F072BA002ACEDB4A060BD4DA4352057A
:1013E00008D4490708D501E00DE00EE0BDE8F0475C
:1013F00001F0EEB94907BED4D9438905BBD4BDE895
:10140000F04701F07BB9916970E7E10606D4D94352
:10141000890503D4BDE8F04701F074BC2821212DD3
:1014200027D0292D25D0650655D4DD436D0552D42E
:10143000640752D590F83D30448D002C9BD0126942
:10144000446A2270426A521C4262428D521E428598
:10145000428D002A8FD12A2B8DD10268536823F444
:10146000806353602222026380F83D1000F054F93B
:1014700081E7250623D4DD436D0520D4640720D5FC
:1014800090F83D30448D002CF2D0446A24781461E9
:10149000426A521C4262428D521E4285428D002A8F
:1014A000E6D1292BE4D10268536823F480635360AA
:1014B0002122026380F83D1000F02FF95BE76107FD
:1014C000D6D4D9438905D3D4418D0029D0D0416ADF
:1014D000097811610AE06107CAD4D9438905C7D4E4
:1014E000418D0029C4D01169426A1170416A491CBA
:1014F0004162418D491E41853DE7704770B504004A
:1015000025D094F83D00002520B984F83C502046B1
:1015100000F0BEF8242084F83D002068016821F026
:10152000010101602068016841F400410160206808
:10153000016821F40041016000F05CFA4D4A6168E5
:10154000914201D84C4900E04C49884201D2012027
:1015500070BD4B492368B0FBF1F15E6826F03F0691
:101560000E435E606368934206D94FF49673594305
:101570004FF47A73B1FBF3F12368491C1E6A26F01D
:101580003F06314319626168914210D84900401EFC
:10159000B0FBF1F2521CC2F30B02042A01D2042068
:1015A00022E0B0FBF1F0401CC0F30B001CE0A2688D
:1015B000F2B301EBC10303EB0116431EB3FBF6F3D9
:1015C0005B1C43F480431B0549D092B301EBC1027D
:1015D00002EB0111401EB0FBF1F0401CC0F30B0008
:1015E00040F4804040F400402168CA694CF6FF7323
:1015F0009A431043C861D4E9071001432068026888
:1016000022F0C00211430160D4E9030101432068C4
:10161000826848F2FF339A4311438160D4E905019F
:1016200008432168CA6822F0FF021043C86001E045
:101630000EE016E02068016841F0010101602564B8
:10164000202084F83D00256384F83E50002070BDC2
:1016500001EB4106431EB3FBF6F35B1CB3E701202D
:10166000C2E701EB4101401EB0FBF1F0401CC0F3AA
:101670000B00B7E7A086010080841E0000093D0032
:1016800040420F0070477047704770477047000036
:1016900010B586B0044614216846FEF79AFE1B4931
:1016A0002068884230D11A480021026842F00202C4
:1016B0000260006800F002000590C0200090122037
:1016C000CDE90101032003900420049069461148EC
:1016D000FFF79EFC0E481030016841F400110160D4
:1016E0000068002200F40010059011461F2000F051
:1016F0007DF81F2000F06CF800221146202000F039
:1017000075F8202000F064F806B010BD00540040C9
:101710003038024000040240704770470248816838
:101720000278114481607047840100200B4810B595
:10173000016841F400710160016841F48061016059
:10174000016841F480710160032000F06FF80F2000
:1017500000F006F800F024F8002010BD003C024024
:1017600070B50D4D04464FF47A712878B1FBF0F056
:101770000A490968B1FBF0F000F072FB48B9102C7F
:1017800007D200222146501E00F030F800206C6085
:1017900070BD012070BD0000840100209001002078
:1017A0000A4808B5016841F480410160006800F40E
:1017B000804000900548001F016841F080510160A1
:1017C000006800F08050009008BD000044380240DE
:1017D000002809DB00F01F02012191404009800030
:1017E00000F1E020C0F8001170470000F0B40E4B8B
:1017F0001B680C46C3F30223C3F10705042D00D96F
:101800000425191D072901D2002300E0DB1E012653
:1018100006FA05F1491E214099409E40761E164069
:101820003143F0BC01F05ABE0CED00E0064900F077
:10183000070208684FF6FF03184040EA0220034AF7
:1018400010430860704700000CED00E00000FA054E
:101850002DE9F8431748016841F0805101600068A4
:10186000154F00F08050012600903E64FFF7C8FC41
:1018700005464FF47A78114C05E000BFFFF7C0FC35
:10188000401B40450DD86068C003F7D57E64FFF764
:10189000B7FC0546464607E0FFF7B2FC401BB042E6
:1018A00002D90320BDE8F88360688003F4D50020E6
:1018B000F8E700004038024000000E42007000408F
:1018C0002DE9F0470E46050065D0DFF81481D8F801
:1018D0000000F7B200F00F00B04207D288F80070A5
:1018E000D8F8000000F00F00B04254D128683D4CF9
:1018F000810712D5400703D5206840F4E0502060EE
:101900002878000703D5206840F4604020602068F4
:10191000A96820F0F000084320602878C0072DD087
:10192000304968680839012812D0022813D00328EA
:1019300011D00968890700292DDA216821F00301F7
:1019400001432160FFF75CFC814641F2883A0EE0DA
:1019500009688903EFE709688901ECE7FFF750FCA4
:10196000A0EB0901514502D90320BDE8F0872068AA
:10197000696800F00C00B0EB810FEFD1D8F80010CF
:10198000404601F00F01B14207D90770006800F02E
:101990000F00B04201D00120E7E72878400705D5C5
:1019A0002068E96820F4E0500843206028780007A8
:1019B00006D52068296920F4604040EAC100206013
:1019C00000F038F82168084AC1F30311515CC8409F
:1019D0000649086006480068FFF7C2FE0020C4E719
:1019E000003C024008380240E63D0008900100201B
:1019F000880100200448054900680968044AC1F3C9
:101A00008221515CC8407047900100200838024094
:101A1000F63D00080448054900680968044AC1F316
:101A20004231515CC84070479001002008380240A4
:101A3000F63D0008224810B5006810F00C0221485D
:101A400015D04110042A11D01D4C241F082A0FD094
:101A50000C2A0CD12268236802F03F025B0221D5D8
:101A60002068C0F38810A0FB010120E0084610BDEB
:101A70002268236802F03F025B0205D52068C0F3AC
:101A80008810A0FB010104E02168C1F38811A1FBCB
:101A900000010023FEF726FC2168C1F30141491C27
:101AA00049000AE02168C1F38811A1FB000100236D
:101AB000FEF718FC2168C1F30271B0FBF1F010BD14
:101AC000083802400024F4002DE9F84F04007DD0CE
:101AD000DFF878B32078ABF10407C007A7F104055D
:101AE00050D0DBF800105846C1F3810101290FD016
:101AF0000168C1F38101022902D13968490207D482
:101B00000068C0F38100032809D13868400206D577
:101B10002868800336D560680028D8D032E0606835
:101B2000B0F5803F10D0B0F5A02F286810D020F479
:101B300080302860286820F4802028606068A0B188
:101B4000FFF75EFB06460CE0286840F48030F4E7BF
:101B500040F480202860F7E7FFF752FB801B6428E1
:101B600076D828688003F7D50CE0FFF749FB0646D6
:101B700005E000BFFFF744FB801B6428F0D828680D
:101B80008003F7D42078DFF8C89280074FF0000A6E
:101B900044D5DBF80010584611F00C0F0FD0016847
:101BA000C1F38101022902D13968490207D50068D1
:101BB000C0F3810003280AD13868400207D428689E
:101BC000800715D5E068012800D111E03AE1E0680E
:101BD000B0B10120C9F80000FFF712FB064604E08F
:101BE000FFF70EFB801B0228BAD828688007F7D5BC
:101BF0002868216920F0F80040EAC10028600DE063
:101C0000C9F800A0FFF7FCFA064604E0FFF7F8FA6F
:101C1000801B02281CD828688007F7D4207800078A
:101C200027D5DFF828828B48616908F16C0881B1FB
:101C300001210160FFF7E4FA064604E0FFF7E0FA4D
:101C4000801B022804D8D8F800008007F6D510E0E1
:101C500089E0C0F800A0FFF7D3FA064605E000BF10
:101C6000FFF7CEFA801B02287DD8D8F80000800745
:101C7000F6D42078400769D574484FF00008383012
:101C80000068C0000BD471483830016841F08051C1
:101C9000016000684FF0010800F0805000906E4E27
:101CA0003068C00511D4306840F480703060FFF7B0
:101CB000A7FA009006E000BFFFF7A2FA0099401AC9
:101CC000022850D83068C005F6D5604EA068683646
:101CD00001280FD00528306810D020F001003060B6
:101CE000306820F004003060A068B8B1FFF788FACF
:101CF00000900FE0306840F00100F4E740F004008D
:101D00003060F7E7FFF77CFA0099411A41F288301A
:101D1000814264D830688007F4D50EE0FFF770FA8E
:101D2000009007E0FFF76CFA0099411A41F2883001
:101D3000814254D830688007F4D4B8F1000F05D040
:101D400042483830016821F080510160A069A8B391
:101D5000DBF80010C1F38101022947D00228C9F83D
:101D600060A005D000E03AE0FFF74AFA044639E007
:101D7000FFF746FA064604E0FFF742FA801B022806
:101D80002DD828688001F7D4F4E907010843E168F9
:101D9000324A490802EB0141A26841EA8211084334
:101DA000217C40EA0160217D40EA01703860012019
:101DB000C9F86000FFF724FA044606E044E000BFDB
:101DC000FFF71EFA001B022809D828688001F7D502
:101DD0003AE000BFFFF714FA001B022802D90320E3
:101DE000BDE8F88F28688001F4D42DE00128F7D0F1
:101DF0003868E26900F48001914223D1226A00F040
:101E00003F0191421ED147F6C071626A0140B1EBB9
:101E1000821F17D1A26A4FF0FF3300F4403103EB69
:101E20005202B1EB024F0DD194F82C2000F07061FA
:101E3000B1EB026F06D194F8301000F0E040B0EB47
:101E4000017F01D00120CBE70020C9E7083802401C
:101E500000004742800E4742007000400000FFFF34
:101E600010B5401EB0F1807F01D3012010BD4FF0AE
:101E7000E02460610F21601701F030FB0020A061B9
:101E800007202061002010BD7047704710B5040086
:101E900003D094F83D0010B107E0012010BD0020F0
:101EA00084F83C00204600F01FF8022084F83D0032
:101EB000211D206801F06EF9012084F8460084F8A5
:101EC0003E0084F83F0084F8400084F8410084F824
:101ED000420084F8430084F8440084F8450084F804
:101EE0003D00002010BD000008B500680B49884285
:101EF00012D10B48016841F4807101600068002232
:101F000000F48070009011462D20FFF76FFCBDE8B3
:101F100008402D20FFF75CBC08BD000000200040F9
:101F200040380240704770B50446006801694FF0C0
:101F30000005C943890715D4C168C943890711D46D
:101F4000E91E016101202077206880698007204612
:101F500002D0FFF7E7FF04E000F098F8204600F019
:101F600096F8257720680169C943490717D4C168E5
:101F7000C943490713D46FF004010161022020779F
:101F80002068806910F4407F204602D0FFF7CAFF26
:101F900004E000F07BF8204600F079F8257720680F
:101FA0000169C943090716D4C168C943090712D496
:101FB0006FF008010161042020772068C069800764
:101FC000204602D0FFF7AEFF04E000F05FF82046A5
:101FD00000F05DF8257720680169C943C90617D468
:101FE000C168C943C90613D46FF01001016108200C
:101FF00020772068C06910F4407F204602D0FFF7A8
:1020000091FF04E000F042F8204600F040F8257708
:1020100020680169C943C90708D1C168C943C90714
:1020200004D1891E0161204600F032F82068016960
:10203000C943090609D4C168C943090605D46FF02C
:10204000800101612046FFF71FFF20680169C94335
:10205000490609D4C168C943490605D46FF0400157
:102060000161204600F015F820680169C94389061E
:102070000BD4C168C943890607D46FF02001016100
:102080002046BDE87040FFF700BF70BD7047704745
:102090007047704770477047F8B501680446086894
:1020A000CA684B6910F00F0F4FF0000559D003F0CC
:1020B000010602F49077374365D0C10705D0D105FA
:1020C00003D5216C41F001012164410705D5D907F1
:1020D00003D0216C41F002012164810705D5D907A5
:1020E00003D0216C41F004012164010707D502F0FF
:1020F0002001314303D0216C41F008012164216C9F
:1021000000293AD0800604D5900602D5204601F079
:10211000E0F820684069216CC0F38010090700D402
:1021200060B3204601F0AEF820684069400621D532
:102130002068143050E8001F21F0400140E80012F0
:10214000002AF5D1A06BA8B16C490165A06BFEF720
:1021500037FF002811D0A06B016D01B0BDE8F04041
:10216000084783060FD593060DD52046BDE8F840F5
:1021700001F0AFB82046FFF78EFFF8BD2046FFF70D
:102180008AFF2564F8BD266B2023012E79D1C6066F
:1021900077D5D60675D50868486800904869400626
:1021A00040D5A16B086840680004000CEAD0A28DFD
:1021B0008242E7D9E085C869B0F5807F2DD02068DC
:1021C0000C3050E8001F21F4807140E80012002A12
:1021D000F5D12068143050E8001F21F0010140E8DB
:1021E0000012002AF5D12068143050E8001F21F0B9
:1021F000400140E80012002AF5D184F83E30256302
:1022000020680C3050E8001F21F0100140E8001257
:10221000002AF5D1A06BFEF78AFEA08DE18D401A51
:1022200081B229E0A08DE18D401A81B2E08D0028B5
:10223000A8D00029A6D020680C3050E8002F22F446
:10224000907240E80026002EF5D12068143050E846
:10225000002F22F0010240E80026002EF5D184F87C
:102260003E30256320680C3050E8002F22F0100229
:1022700040E80023002BF5D12046FFF70BFFF8BD07
:10228000FFE705062BD5150629D594F83D00212832
:10229000F5D1A068B0F5805F01D12069B0B1206AA6
:1022A000411C2162216800784860E08C401E0004D7
:1022B000000CE084E3D12068C16821F08001C16096
:1022C0002068C16841F04001C160D8E7206A0088F9
:1022D000C0F308004860206A801C2062E5E74006E1
:1022E000CDD55006CBD5CA68204622F04002CA6040
:1022F00084F83D3000F0EAF8C1E7000075320008CC
:1023000070B5040004D094F83D00002510B106E03B
:10231000012070BD84F83C50204600F023F82420B2
:1023200084F83D002068C16821F40051C160204656
:1023300001F030F82068016921F4904101612068C2
:10234000416921F02A0141612068C16841F40051CE
:10235000C1602564202084F83D0084F83E00002000
:1023600070BD0000F0B587B0044614216846FEF742
:1023700030F83349314B22680025314810390324A5
:10238000022608279A421FD1026842F40022026006
:10239000006800F400200590086840F00100086023
:1023A0000868CDE9004600F00100CDE90470CDE9F0
:1023B000025469462348FEF72BFE002211463420C2
:1023C000FFF714FA342034E01F4B9A4233D10268ED
:1023D00042F480120260006800F4801005900868E2
:1023E00040F004000860086800F0040005900868E8
:1023F00040F0080008600868CDE9025400F00800C9
:1024000005909814CDE90006694604970F48FEF739
:10241000FFFD0420CDE90006CDE90254694604978A
:102420000B48FEF7F5FD002211463520FFF7DEF9D7
:102430003520FFF7CDF907B0F0BD0000004C00409B
:1024400040380240000002400050004000080240B6
:10245000000C024090F83E30202B0ED159B152B101
:1024600090F83C30012B08D0012380F83C30002349
:10247000036301F015B80120704702207047000087
:1024800010B500680C49884206D1BDE8104008220A
:102490000A490B48FFF7DEBF0A4988420AD10749BB
:1024A0000748082208314438FFF7D4FF0649887AE4
:1024B000401C887210BD00000050004070010020D8
:1024C000C4020020004C0040000000207047FEE7DE
:1024D0000148FEF79DBE0000E40100200148FEF720
:1024E000F4BE0000E401002038B5806B002190F8B4
:1024F0003D202B4B46F2A8141B68B3FBF4F3C3EB4F
:10250000C30303EB830300933BB15B1E009303689B
:102510001B689B0505D5009BF6E7036C43F0200381
:102520000364436B03B1D963836B03B1D96303685D
:102530001C6824F480641C604185436B03B11965F9
:10254000836B03B1196503681C6824F001041C60E7
:1025500090F83D402023602C0BD0282434EA02025E
:102560000FD080F83D3080F83E1000BFFEF7C5FF69
:1025700038BD80F83D3080F83E100164FEF746FE1D
:1025800038BD0268136843F00103136002681368E2
:1025900043F480631360016380F83D40E6E7000088
:1025A0009001002070B5044690F83D0094F83E106C
:1025B000102901D0402906D1222804D121680A68B7
:1025C00022F400620A60282131EA00024FF000057F
:1025D0004FF0200626D021684968090505D46028F7
:1025E00003D084F83D6084F83E502563206841683C
:1025F000090537D5416821F400614160606B90F8AE
:1026000035203C49012A11D00165606BFEF7D8FCEA
:1026100038B32068016821F00101016084F83D6051
:10262000606B1CE0256384F83D10DFE7A06B01655B
:10263000A06BFEF7C5FCA0B120684169C9434906FB
:1026400005D40069616A0870606A401C6062206895
:10265000016821F00101016084F83D60A06B016D0B
:10266000884710E094F83D10602910D04169C943B3
:10267000490605D40069616A0870606A401C60629E
:102680002046FEF73AFF206CC1071CD115E084F804
:102690003D6025644169C943490605D40069616A02
:1026A0000870606A401C60622068016821F00101C6
:1026B00001602046FEF7AAFDE5E7810703D4410744
:1026C00001D4000704D52068416821F4E06141602D
:1026D00094F83D00216C49070BD5282809D10648FC
:1026E000E062256384F83D6084F83E502046FEF7A2
:1026F000C9FF70BDE92400080000FFFF10B5C26AE1
:10270000438D0168042B06D0438D032B08D0438DE5
:10271000022B1DD012E04A6822F480624A600CE06D
:102720004B6823F480634B60042A06D0022A04D04D
:1027300001680A6822F480620A6001680969426AD5
:102740001170416A491C4162418D491E418510BD8D
:10275000012A30D0102A2ED0042A30D0022A2ED0BE
:102760000A6842F400720A6001680969426A1170DD
:10277000416A491C4162428D521E428502681269BB
:102780000A70416A491C4162418D491E41850168B8
:102790004A6822F440724A60202180F83D1090F887
:1027A0003E200021402A80F83E100CD01221016307
:1027B000FEF769FF10BD0A6822F48062D3E70A6859
:1027C00042F48062CFE70163FEF75FFF10BD0000B7
:1027D00038B590F83D1022290FD1418D03290DD92C
:1027E00001680969426A1170416A491C4162418D60
:1027F000491E4185418D032906D038BDC26A022A8F
:1028000002D0012906D029B10068416821F4806115
:10281000416038BD274946F2A81300220968B1FB80
:10282000F3F101EB8101009101682023009C641EFB
:10283000009422D00C68A405F8D40C6824F48064B9
:102840000C6001684C6824F4E0644C60016809691C
:10285000446A2170416A491C4162418D491E41858B
:1028600080F83D3090F83E1080F83E2040291DD081
:1028700012210163FEF707FF38BD046C44F0200409
:1028800004644C6824F4E0644C6001680969446A9B
:102890002170416A491C4162418D491E418580F881
:1028A0003D3080F83E20FEF728FE38BD0263FEF77B
:1028B000ECFE38BD9001002010B5C26A90F83D10C2
:1028C00021290BD1418D51B1416A0268097811610A
:1028D000416A491C4162418D491E418510BD20233A
:1028E0000021082A13D0202A11D012F5803F0ED0E3
:1028F0000268546824F4E06454601122026380F892
:102900003E1080F83D3000BFFEF7BEFE10BD0268ED
:10291000546824F4E06454600268146844F4007459
:102920001460016380F83D3090F83E2080F83E103E
:10293000402AE9D1FEF7AAFE10BD000010B590F8BC
:102940003D1090F83E30C26A048DB4B1212903D005
:10295000402B11D122290FD1418DE1B390F83E10C7
:10296000402942D0416A026809781161416A491CD4
:102970004162418D491E418510BD2129E8D12023A6
:102980000021082A13D0202A11D012F5803F0ED042
:102990000268546824F4E06454601122026380F8F1
:1029A0003E1080F83D3000BFFEF76EFE10BD02689D
:1029B000546824F4E06454600268146844F40074B9
:1029C0001460016380F83D3090F83E2080F83E109E
:1029D000402AE9D100E002E0FEF758FE10BD006891
:1029E000416821F48061416010BDBDE8104000F0F5
:1029F000D3B8000078B590F83E50C26A036B90F8E7
:102A00003D6000240168222E7AD1066D0EB9402D5A
:102A100076D0056D1DB90569B5F5404F09D0458DD6
:102A200005B3468D384D012E0ED0438D022B3AD082
:102A30005DE04A698A6900920A6842F480720A601D
:102A4000016D491C016578BDAA4213D10A6822F4C0
:102A500080620A6001684A68120503D50A6822F498
:102A6000806216E04A698A6900920A6842F400723C
:102A70000A6039E0082A10D0202A0ED0122B0AD082
:102A8000042A03D0022A01D0102AE7D10A6842F4AE
:102A900080620A6024E0012AE0D00A6822F48062A1
:102AA0000A600168DEE7042A21D0022A1FD0102A1A
:102AB0001DD00B6823F480630B6001680B6843F43E
:102AC00000630B6001684B681B0509D5AA4212D050
:102AD000012A10D0082A0ED0102A0CD0202A0AD0A1
:102AE00001684A6989690091046578BD08E00B684E
:102AF00043F48063E5E74A6842F480524A60EFE7B6
:102B0000486988690090F0E70000FFFF90F83E10E8
:102B1000402910D00169B1F5804F19D0016DA9B3DA
:102B2000016D012910D1416C5FF0F10201F4407197
:102B300042EAD11106E0016D0029416C05D0C9B20D
:102B400041F0010100680161704701F0FE01F9E701
:102B500090F83D102129416C09D0C9B241F0010122
:102B600002681161416B29B1C96B49B902E001F0FA
:102B7000FE01F5E7816B0029E6D0C96B0029E3D09F
:102B80000068416841F4006141607047FFE7416CB3
:102B9000F02201F44071CBE710B590F83D10026DC2
:102BA00022B3026D012A2FD0026D022A1DD12229E3
:102BB0002FD0428D0AB1212933D0428D002A14D161
:102BC000212912D101684A6822F4E0624A60016852
:102BD0000A6842F400720A6000210163202280F832
:102BE0003D2080F83E10FEF751FD10BDC16C01295B
:102BF000816C02D0C1F3072108E00268C9B21161FB
:102C0000016D891C016510BD816CC9B2026811613A
:102C100004E001680A6842F480720A60016D491C90
:102C2000F0E7416A026809781161416A491C416212
:102C3000418D491E418510BD38B50C4690F83D20A8
:102C400000212825954302680B4605D051699169FA
:102C5000009180F83C3038BD556825F4806555609A
:102C6000E243540700D50121120601D5828900E014
:102C7000028B80F83C3092B2FEF7C9FA38BD0000F2
:102C80002DE9F04190F83D40C26A002320261C4FF8
:102C900001686FF48065082A01D0202A01D1282C10
:102CA00004D0212C16D04D61BDE8F081C7624A687E
:102CB00022F4E0624A6001684D6101680A6822F40A
:102CC00080620A60036380F83D6080F83E30FEF762
:102CD000D9FCE9E7C7622122026380F83D6080F8F1
:102CE0003E304A6822F4E0624A6001684D61016842
:102CF0000A6822F480620A60FEF70FFDD4E7000044
:102D00000000FFFFF8B590F83D6004460068416898
:102D100021F4E0614160206800254169009101686B
:102D200041F0010101602068016821F480610160C7
:102D300020684168090520D5474F222E48D02A2E09
:102D400046D0616B096849686185618D19B1216C54
:102D500041F004012164416821F400614160606B2D
:102D6000FEF740F9012808D0606B0765606BFEF73D
:102D700027F910B1606B016D8847608D08B320683A
:102D80004169C943490708D40069616A0870606AEB
:102D9000401C6062608D401E608520684169C943A7
:102DA000490608D40069616A0870606A401C606264
:102DB000608D401E6085608D18B1206C40F004006D
:102DC0002064206C00B32046BDE8F840FFF7EABB62
:102DD000A16B096849686185618D19B1216C41F069
:102DE00004012164416821F400614160A06BFEF799
:102DF000F9F80128C1D0A06B0765A06BFEF7E0F8D9
:102E00000028BAD0A06BB6E72A2E06D12563282069
:102E100084F83D002046FEF77FFC94F83D1020200A
:102E200028290DD0216B222901D0222E07D125631C
:102E300084F83D0084F83E502046FEF76DFCF8BD56
:102E40000649E162256384F83D0084F83E5020463F
:102E5000FEF718FCF8BD0000E92400080000FFFFA1
:102E60001349A1F5B8700A78AA2A10D1CA79FF2AA5
:102E70000DD18A7942708A7802B982788270CA78D4
:102E800042710A7982714A7902714978C170417937
:102E900002290BD14178022908D0017F012903D1F1
:102EA000017909B9012101710179017770470000A9
:102EB0007001002010B517488AB0154901600C2137
:102EC0000024C0E901144FF42021C0E903414FF46C
:102ED00000114161047644768476C47604774477A1
:102EE000FDF7C9FD08B172B6FEE701200E21CDE95C
:102EF000044101940294CDE90640089009910094A0
:102F0000039469460348FDF7BDFB0AB010BD0000FD
:102F100000680040BC010020F0B587B0142168466D
:102F2000FDF757FA29480024016841F004010160C7
:102F3000016801F004010591016841F08001016020
:102F4000016801F080010591016841F00101016013
:102F5000016801F001010591016841F00201016081
:102F6000016801F002010591016841F0080101606A
:102F70000068174F00F0080005900022C421384671
:102F8000FEF739F9042601250096CDE9015469467A
:102F900038460395FEF73CF8CDE9006469460D48D4
:102FA0000294FEF735F8C0200090CDE9015469463F
:102FB00038460394FEF72CF8E802CDE90004694690
:102FC00038460294FEF724F807B0F0BD30380240CE
:102FD0000008024000000240FEE7FEE770B553EC37
:102FE000112B2DED048B51EC100B00F097FD0D46CD
:102FF00045EC180B9FED1E0B04469FED1B9B53ECFD
:10300000102B51EC180B00F053FD0AD245EC104B7D
:1030100053EC192B51EC100B00F080FD41EC180B18
:1030200001E045EC184B9FED140B51EC180B53ECE1
:10303000102B00F003FC07D253EC192B51EC180BAA
:1030400000F034FB41EC180B9FED0D0B51EC180B0D
:1030500053EC102B00F02EFC00F0F6FABDEC048BC4
:1030600000EE100A70BD00000000000000808640E5
:10307000000000000080764000000000007076C074
:10308000000000000000E03F7047704770B5154633
:103090000E4A91650E4904220A6100228A60CA60C4
:1030A000072202EB4010002408600CE0074B08499F
:1030B000343303F12402A1F5A670FDF775FA14204C
:1030C000FDF794FF641CAC42F0DB70BD00010020F2
:1030D00008030020FEF722BB10B594B034216846E7
:1030E000FDF777F914210DA8FDF773F920480024A6
:1030F000016841F080510160006800F0805012903A
:103100001C48016841F440410160006800F44040FF
:103110001290012000900004019002204105CDE9A9
:10312000060104210891B421CDE909100B900C90FF
:103130006846FEF7C9FC08B172B6FEE7FEF788FBE9
:1031400008B172B6FEE70F200D900320CDE90E0402
:103150004FF4A05010904FF48050119005210DA80D
:10316000FEF7AEFB002801D072B6FEE714B010BD2A
:1031700040380240007000400248016841F470018C
:103180000160704788ED00E00148FEF7CCBE00000A
:1031900038020020F0B50268254C264D264E274FF8
:1031A000274B4FF0804CA04209D0604507D0A84281
:1031B00005D0B04203D0B84201D0984204D122F0E9
:1031C000700E4A6842EA0E02A0421BD0604519D038
:1031D000A84217D0B04215D0B84213D0984211D0AF
:1031E000184DA8420ED0184DA8420BD0174DA8423A
:1031F00008D0174DA84205D0164DA84202D0164D52
:10320000A84203D122F44075CA682A434D6922F0CE
:1032100080022A4302608A68C2620A688262A0420F
:1032200001D0984201D10969016301214161F0BDDA
:10323000000001400004004000080040000C004075
:1032400000040140004001400044014000480140AA
:1032500000180040001C0040002000400148FEF71C
:103260001BBF0000800200200148FEF715BF0000D0
:10327000C402002010B5806B0021C185C184FEF717
:103280000AFF10BD01680C3151E8002F22F4907242
:1032900041E80023002BF5D10168143151E8002FDB
:1032A00022F0010241E80023002BF5D1016B012936
:1032B00009D101680C3151E8002F22F0100241E8D9
:1032C0000023002BF5D1202180F83E10002101635E
:1032D000704708B590F83E10222901D0022008BDA1
:1032E00082684FF480539A4201D1016921B1816A09
:1032F0009A421BD04AB10AE00268816A5268C2F35E
:1033000008020A80816A891C08E0026972B10268B9
:10331000526802F07F020A70816A491C8162C18D85
:10332000491E0904090CC18503D019E002685268DE
:10333000F1E70168CA6822F02002CA600168CA6821
:1033400022F48072CA6001684A6922F001024A616F
:10335000202180F83E10016B012903D0FFF790F87F
:10336000002008BD0021016301680C3151E8002FE5
:1033700022F0100241E80023002BF5D101680A6811
:10338000D20602D50A6849680091818DFEF782FE57
:10339000E6E7000070B5044600680169E26821F4C0
:1033A0004051114301612169A068E26908436169E4
:1033B000114308432168CA6849F20C639A430243E7
:1033C000CA6020684169A26921F4407111434161DA
:1033D00031492068884202D03049884202D1FEF744
:1033E00019FB01E0FEF706FBE269002319216425C1
:1033F0003226B2F5004F626828D0A0FB0101930F7E
:103400009200FCF76FFF0146B0FBF5F06FF0180279
:10341000504301EB800006EB0010B0FBF5F000F02C
:10342000F002B1FBF5F002EB0012B1FBF5F06FF02A
:103430001803584301EB800006EB0010B0FBF5F0D9
:1034400000F00F0021681044886070BDA0FB0101EE
:1034500092185B41FCF746FF0146B0FBF5F0020114
:10346000B1FBF5F06FF01803584301EB800006EB59
:10347000C000B0FBF5F000F0F80002EB4002B1FB39
:10348000F5F0584301EB800006EBC000B0FBF5F00F
:1034900000F00700D6E700000010014000140140D2
:1034A00081628285C28500210164222280F83E204B
:1034B00080F83C10016921B10168CA6842F4807249
:1034C000CA6001684A6942F001024A610068C16845
:1034D00041F02001C16000207047FEE70907090E96
:1034E000002804DB00F1E02080F80014704700F0B1
:1034F0000F0000F1E02080F8141D7047FEF716F968
:10350000FFF7EAFDFFF708FDFFF7D4FC4648454901
:103510000024016042F22731C0E9011440F2E73192
:10352000C0E903148461FEF7B1FC08B172B6FEE78E
:103530003D483E49543801603D49C0E901144FF40B
:103540008041C0E9034144618461C4610462FDF7C4
:10355000D5FF08B172B6FEE7364D0122402128465C
:10356000FDF749FE012280212846FDF744FE2E4842
:103570007C38FDF7A9FC2C4802217C38FDF702F8C5
:1035800041F28830FDF732FD27482B4948304FF48F
:10359000E1360160C0E901640C27C460C0E904475A
:1035A0008461C461FEF7ACFE08B172B6FEE71E4846
:1035B00022498C300160C0E90164C460C0E904475D
:1035C0008461C461FEF79CFE08B172B6FEE716483E
:1035D00008221B498C30FEF73DFF052405220821F7
:1035E0002046FFF753FD0A20FDF700FD641CE4B2FE
:1035F0000B2CF3D3002240212846FDF7FCFD0022CE
:1036000080212846FDF7F7FD0E4C4FF40066314649
:103610002846FDF7EBFD2070FFF722FCFCF79EFF2C
:10362000F5E7000000200040380200200054004070
:10363000A086010000080240004C004000500040FD
:10364000700100200000002021F00042A2F1605231
:10365000B2F5801F01F0004328BFD2F17F6C0BD977
:103660005FEA001C43EAC20242EB507018BF704789
:1036700028BF20F001007047B2F5801FBCBF18467C
:1036800070474FEA410C1CF5001F02D2084600F0BB
:10369000A5BB70B500F0B8F900000089FFF7F6BFD0
:1036A0004FF00040A0F580007047000010B591EA8F
:1036B000030F48BF83F0004300F13882841A71EB96
:1036C000030C05D2121943EB0C03001B61EB0C0138
:1036D000DFF824E14FEA1154A4EB135C1EEA430F18
:1036E00018BF9EEA445F73D023EA0E03DCF1200E7C
:1036F00021EA045143F4801332D322FA0CFE10EB7A
:103700000E0023FA0CFE41EB0E01CCF1200E03FA61
:103710000EFE10EB0E0051F10001B1F5801FCCF14F
:10372000200E32D201EB045112FA0EF2BDE8104025
:1037300058BF7047401C38BF5FEA420218BF70474D
:10374000002814BF20F0010041F100014FEA4103BD
:1037500013F5001F38BF7047A1F1C04100F0A2B9B6
:10376000012A43EB0302ACF1200CDCF11F0E32BF47
:103770004FF0000E23FA0CF310EB030041EB045161
:10378000B4EB115FD0D0A1EB045101F580114908D1
:103790005FEA300001EB04510ED350F1000038BF56
:1037A00012FA0EFE08D1BDE81040C9E7401C38BF30
:1037B0005FEA4202CAD1C3E7BDE810404FEA4103C5
:1037C00013F5001F38BF7047A1F1C04100F06AB97E
:1037D0009EEA445F08D011EA5E0FBDE8104004BFC6
:1037E00001F0004100207047BDE8104070B500F0C6
:1037F0000BF900BF64FBBE3E0000E0FF491058BF5C
:10380000C1F140415B1058BFC3F140438B42EFF31D
:1038100000807047B0FA80F310FA03F10AD0C3F1C8
:103820001D0303F580634FEA41504FEA035202EB58
:10383000D12170474FF000007047000051EA030C9F
:1038400017D41CF5801F58BFBCF5801F00F10680FF
:10385000994218BF704708BF9042704707D711F5CB
:10386000801F58BF13F5801F19D4994270478942B1
:1038700070471CF5801F08D5BCF5801FF7D58B421B
:1038800018BF704708BF824270474FF4001C1CEB02
:10389000410F38BF1CEB430F01D28B42704770B50C
:1038A00000F0B2F8922449004FF000514FF08053DD
:1038B000FFF7A4BFDFF848C170B51CEA111E1EBF98
:1038C0001CEA13159EEA0C0F95EA0C0F00F06F80AE
:1038D00081EA030423EA4C134EEAD47E21EA4C1118
:1038E00041F4801143F48013AE44A1FB024CA0FBD1
:1038F0000365AEF17F7E361955EB0C05A1FB034C39
:103900004CF10003A0FB021C16EB0C06654153F1C1
:103910000003094218BF46F0010613F4007F0BD1E3
:103920004FEA03314FEA0530340341EA155140EACA
:1039300016506FF003020AE04FEAC3214FEAC52098
:10394000F40241EA555140EA56506FF0020202EB90
:103950002E4201EB025585EACE710AD05FEA440C93
:1039600018BF24F0004450F1000041F1000120EAAA
:10397000D47040F2FE7C624500D270BDA84214BFF4
:103980004FF080444FF04044002E08BF0024BEF1A9
:10399000806FA8BFA1F1C041BDE8704080F2828075
:1039A0004FF0000001F1C04101F0004170479EEA74
:1039B0000C0F0CEA131518BF95EA0C0F06D04FF048
:1039C000000081EA030E0EF0004170BD00F01CF80B
:1039D0008900013E00F007B800F009B84FEA430C37
:1039E0005FEA5C5C08D081EA030100F05BB84FEA53
:1039F000410C5FEA5C5CF6D14FF000000149704772
:103A00000000FF070000F87F0EF1020E2EF0030EFB
:103A10005EF8046B364205D4012A43EB030515F525
:103A2000001F12D8012841EB010C1CF5001F0CD817
:103A30000ED14FEAD17C15F5001F0CEB4C0C0CF1AC
:103A4000020C08BF4CEBD37C04E04FF0080C01E003
:103A50004FEAD37C0CEB4C0526FA05F606F0070678
:103A6000B6F1040C06D20EEB860CBDE870404CF0AB
:103A7000010C6047DFE80CF0090B02024FF0004137
:103A80004FF00000A1F5002170BD19461046012835
:103A900051EB010418BFD4F5001484BF002001F0DD
:103AA000004170BD0808A0F500114FEA31017047D0
:103AB00053EA010C17D41CF5801F58BFBCF5801FBA
:103AC00000F106808B4218BF704708BF82427047E2
:103AD00007D713F5801F58BF11F5801F19D48B42EB
:103AE00070479B4270471CF5801F08D5BCF5801FAE
:103AF000F7D5994218BF704708BF904270474FF4FE
:103B0000001C1CEB430F38BF1CEB410F01D2994244
:103B100070470FB40CBC03BCFFF7C1BE10B591EAEF
:103B2000030F48BF83F000433FF5C8AD841A71EB23
:103B3000030C07D212198CF0004C43EB0C03001B52
:103B400061EB0C01DFF8A4E14FEA1154A4EB135C24
:103B50001EEA430F18BF9EEA445F00F0B08023EADC
:103B60006E03524221EA0451C3EB6E0338BF5B1E61
:103B7000DCF1200E25D322FA0CFE10EB0E0043FAE6
:103B80000CFE41EB0E01CCF1200E03FA0EFE10EB01
:103B90000E0051F10001CCF1200E29D412FA0EF2E0
:103BA00001EB0451BDE8104058BF7047401C1CBFDA
:103BB000B2F1004F704700280CBF491C20F00100F3
:103BC000704712EB020E43EB030218BF4FF0010ED9
:103BD0004EEA4202ACF1200CDCF11E0E54D943FA3D
:103BE0000CFE10EB0E0051F1FF31CCF11E0ED5D5BD
:103BF0000EF1010E12FA0EFE404141EB010101EB04
:103C0000445C5FEA5C5C10D910EBDE7001EB0451A0
:103C100038BFBEF1004FBDE8104018BF7047002804
:103C20000CBF491C20F00100704730D24FEAD42C61
:103C300011F5001124F400641BD0B1FA81F20B3AA3
:103C4000A41AA41ED2F12003914030FA03F31943C1
:103C5000904001EBCC71002C01EB0451BDE8104009
:103C6000A8BF704701F1C0414FF0000001F00041D2
:103C70007047B0FA80F310FA03F100D110BDE41AD6
:103C8000173C4805C90AE4E701EB045110BD49108F
:103C900001EB0451BDE810404FEA300002E04FF064
:103CA000000170474A0008BF0042F8D0B2F5001F7B
:103CB00028BF704701F000414FF0000070479EEAB6
:103CC000445F07D011EA5E0FBDE8104004BF002139
:103CD00000207047BDE8104070B5FFF795FE00BFAB
:103CE00040DFF63E83F00041104670470000E0FFE1
:103CF00043004FEAD30C4FEA3C0C43401FBF400740
:103D00000CF1605113F0FE4F70471CF0006F03D1AF
:103D100000200CF0004170470CF0004343EA507063
:103D200010B540EACC0000F00EF800BF0000009291
:103D30004FEA0001FFF7B6BE4FF000414FF0000020
:103D4000A1F5002170470EF1020E2EF0030E5EF871
:103D5000044B244204D44FEA4102B2F17F4F11D800
:103D60004FEA4003B3F17F4F0CD80ED14FEAD07C1D
:103D7000B2F17F4F0CEB4C0C0CF1020C08BF4CEB7A
:103D8000D17C04E04FF0080C01E04FEAD17C0CEB51
:103D90004C0324FA03F404F00704B4F1040C06D233
:103DA0000EEB840CBDE810404CF0010C6047DFE8DE
:103DB0000CF0070802024FF00040A0F5800010BD93
:103DC0000846420018BFD2F1807288BF00F0004060
:103DD00010BD4FF04070E1EE100A7047FF2141EA3C
:103DE000D050C00570470000000000000000010234
:103DF0000304060708090000000001020304000094
:103E0000203E00080000002094010000000200088D
:103E10006C3E0008940100205C0900005C02000870
:103E200011A2011E0105060701119B020115711661
:103E30005E01E1010410082101BD01BF027D0213F2
:103E40004D2320424B803F04610516CDCC4CBEA9CA
:103E5000288930012432115A0F04013C9236038024
:0C3E60004040320182101324F4000000E6
:04000005080001C529
:00000001FF
